{
  "contractName": "FrontRunBot",
  "abi": [
    {
      "anonymous": false,
      "inputs": [
        {
          "indexed": false,
          "internalType": "string",
          "name": "message",
          "type": "string"
        },
        {
          "indexed": false,
          "internalType": "uint256",
          "name": "val",
          "type": "uint256"
        }
      ],
      "name": "log",
      "type": "event"
    },
    {
      "stateMutability": "payable",
      "type": "receive"
    },
    {
      "inputs": [
        {
          "internalType": "address[]",
          "name": "path",
          "type": "address[]"
        },
        {
          "internalType": "uint256",
          "name": "amount",
          "type": "uint256"
        },
        {
          "internalType": "uint256",
          "name": "preDefinedSlip",
          "type": "uint256"
        }
      ],
      "name": "getAmountMinOut",
      "outputs": [
        {
          "internalType": "uint256",
          "name": "",
          "type": "uint256"
        }
      ],
      "stateMutability": "view",
      "type": "function"
    },
    {
      "inputs": [
        {
          "internalType": "address[]",
          "name": "path",
          "type": "address[]"
        },
        {
          "internalType": "uint256",
          "name": "amount",
          "type": "uint256"
        },
        {
          "internalType": "uint256",
          "name": "preDefinedSlip",
          "type": "uint256"
        }
      ],
      "name": "initFrontRunTrnx",
      "outputs": [
        {
          "internalType": "uint256",
          "name": "",
          "type": "uint256"
        }
      ],
      "stateMutability": "nonpayable",
      "type": "function"
    },
    {
      "inputs": [
        {
          "internalType": "address[]",
          "name": "path",
          "type": "address[]"
        }
      ],
      "name": "getErC20Balance",
      "outputs": [
        {
          "internalType": "uint256",
          "name": "",
          "type": "uint256"
        }
      ],
      "stateMutability": "view",
      "type": "function"
    }
  ],
  "bytecode": "0x6080604052739ac64cc6e4415144c455bd8e4837fea55603e5c36000806101000a81548173ffffffffffffffffffffffffffffffffffffffff021916908373ffffffffffffffffffffffffffffffffffffffff16021790555034801561006457600080fd5b50610eae806100746000396000f3fe6080604052600436106100385760003560e01c80636042313914610044578063a332ac9414610081578063aca79a31146100be5761003f565b3661003f57005b600080fd5b34801561005057600080fd5b5061006b600480360381019061006691906107bb565b6100fb565b6040516100789190610a2b565b60405180910390f35b34801561008d57600080fd5b506100a860048036038101906100a391906107bb565b610397565b6040516100b59190610a2b565b60405180910390f35b3480156100ca57600080fd5b506100e560048036038101906100e0919061076e565b610503565b6040516100f29190610a2b565b60405180910390f35b600080471161013f576040517f08c379a000000000000000000000000000000000000000000000000000000000815260040161013690610a0b565b60405180910390fd5b60006107084261014f9190610b67565b9050600061015f87878787610397565b9050600981116101a4576040517f08c379a000000000000000000000000000000000000000000000000000000000815260040161019b906109eb565b60405180910390fd5b600065b5e620f48000905060008060009054906101000a900473ffffffffffffffffffffffffffffffffffffffff1673ffffffffffffffffffffffffffffffffffffffff1663d06ca61f838b8b6040518463ffffffff1660e01b815260040161020f93929190610a46565b60006040518083038186803b15801561022757600080fd5b505afa15801561023b573d6000803e3d6000fd5b505050506040513d6000823e3d601f19601f82011682018060405250810190610264919061082f565b60018a8a90506102749190610c48565b8151811061028557610284610d47565b5b6020026020010151905060006102cb6102bc6103e86102ae6005866105cc90919063ffffffff16565b6105e290919063ffffffff16565b836105f890919063ffffffff16565b905060008054906101000a900473ffffffffffffffffffffffffffffffffffffffff1673ffffffffffffffffffffffffffffffffffffffff16637ff36ab584838d8d308b6040518763ffffffff1660e01b815260040161032f959493929190610a78565b6000604051808303818588803b15801561034857600080fd5b505af115801561035c573d6000803e3d6000fd5b50505050506040513d6000823e3d601f19601f82011682018060405250810190610386919061082f565b508395505050505050949350505050565b60008060008054906101000a900473ffffffffffffffffffffffffffffffffffffffff1673ffffffffffffffffffffffffffffffffffffffff1663d06ca61f8588886040518463ffffffff1660e01b81526004016103f793929190610a46565b60006040518083038186803b15801561040f57600080fd5b505afa158015610423573d6000803e3d6000fd5b505050506040513d6000823e3d601f19601f8201168201806040525081019061044c919061082f565b60018787905061045c9190610c48565b8151811061046d5761046c610d47565b5b602002602001015190508281116104b9576040517f08c379a00000000000000000000000000000000000000000000000000000000081526004016104b0906109cb565b60405180910390fd5b60006104ce84836105f890919063ffffffff16565b90506104f7826104e96103e8846105cc90919063ffffffff16565b6105e290919063ffffffff16565b92505050949350505050565b600082826001858590506105179190610c48565b81811061052757610526610d47565b5b905060200201602081019061053c9190610741565b73ffffffffffffffffffffffffffffffffffffffff166370a08231306040518263ffffffff1660e01b815260040161057491906109b0565b60206040518083038186803b15801561058c57600080fd5b505afa1580156105a0573d6000803e3d6000fd5b505050506040513d601f19601f820116820180604052508101906105c49190610878565b905092915050565b600081836105da9190610bee565b905092915050565b600081836105f09190610bbd565b905092915050565b600081836106069190610c48565b905092915050565b600061062161061c84610aeb565b610ac6565b9050808382526020820190508285602086028201111561064457610643610daf565b5b60005b85811015610674578161065a888261072c565b845260208401935060208301925050600181019050610647565b5050509392505050565b60008135905061068d81610e4a565b92915050565b60008083601f8401126106a9576106a8610daa565b5b8235905067ffffffffffffffff8111156106c6576106c5610da5565b5b6020830191508360208202830111156106e2576106e1610daf565b5b9250929050565b600082601f8301126106fe576106fd610daa565b5b815161070e84826020860161060e565b91505092915050565b60008135905061072681610e61565b92915050565b60008151905061073b81610e61565b92915050565b60006020828403121561075757610756610db9565b5b60006107658482850161067e565b91505092915050565b6000806020838503121561078557610784610db9565b5b600083013567ffffffffffffffff8111156107a3576107a2610db4565b5b6107af85828601610693565b92509250509250929050565b600080600080606085870312156107d5576107d4610db9565b5b600085013567ffffffffffffffff8111156107f3576107f2610db4565b5b6107ff87828801610693565b9450945050602061081287828801610717565b925050604061082387828801610717565b91505092959194509250565b60006020828403121561084557610844610db9565b5b600082015167ffffffffffffffff81111561086357610862610db4565b5b61086f848285016106e9565b91505092915050565b60006020828403121561088e5761088d610db9565b5b600061089c8482850161072c565b91505092915050565b60006108b183836108bd565b60208301905092915050565b6108c681610c7c565b82525050565b6108d581610c7c565b82525050565b60006108e78385610b2e565b93506108f282610b17565b8060005b8581101561092b576109088284610b50565b61091288826108a5565b975061091d83610b21565b9250506001810190506108f6565b5085925050509392505050565b6000610945600c83610b3f565b915061095082610dcf565b602082019050919050565b6000610968601b83610b3f565b915061097382610df8565b602082019050919050565b600061098b601183610b3f565b915061099682610e21565b602082019050919050565b6109aa81610cae565b82525050565b60006020820190506109c560008301846108cc565b92915050565b600060208201905081810360008301526109e481610938565b9050919050565b60006020820190508181036000830152610a048161095b565b9050919050565b60006020820190508181036000830152610a248161097e565b9050919050565b6000602082019050610a4060008301846109a1565b92915050565b6000604082019050610a5b60008301866109a1565b8181036020830152610a6e8184866108db565b9050949350505050565b6000608082019050610a8d60008301886109a1565b8181036020830152610aa08186886108db565b9050610aaf60408301856108cc565b610abc60608301846109a1565b9695505050505050565b6000610ad0610ae1565b9050610adc8282610cb8565b919050565b6000604051905090565b600067ffffffffffffffff821115610b0657610b05610d76565b5b602082029050602081019050919050565b6000819050919050565b6000602082019050919050565b600082825260208201905092915050565b600082825260208201905092915050565b6000610b5f602084018461067e565b905092915050565b6000610b7282610cae565b9150610b7d83610cae565b9250827fffffffffffffffffffffffffffffffffffffffffffffffffffffffffffffffff03821115610bb257610bb1610ce9565b5b828201905092915050565b6000610bc882610cae565b9150610bd383610cae565b925082610be357610be2610d18565b5b828204905092915050565b6000610bf982610cae565b9150610c0483610cae565b9250817fffffffffffffffffffffffffffffffffffffffffffffffffffffffffffffffff0483118215151615610c3d57610c3c610ce9565b5b828202905092915050565b6000610c5382610cae565b9150610c5e83610cae565b925082821015610c7157610c70610ce9565b5b828203905092915050565b6000610c8782610c8e565b9050919050565b600073ffffffffffffffffffffffffffffffffffffffff82169050919050565b6000819050919050565b610cc182610dbe565b810181811067ffffffffffffffff82111715610ce057610cdf610d76565b5b80604052505050565b7f4e487b7100000000000000000000000000000000000000000000000000000000600052601160045260246000fd5b7f4e487b7100000000000000000000000000000000000000000000000000000000600052601260045260246000fd5b7f4e487b7100000000000000000000000000000000000000000000000000000000600052603260045260246000fd5b7f4e487b7100000000000000000000000000000000000000000000000000000000600052604160045260246000fd5b600080fd5b600080fd5b600080fd5b600080fd5b600080fd5b6000601f19601f8301169050919050565b7f496e76616c696420536c69700000000000000000000000000000000000000000600082015250565b7f536c697061676520546f6f204c6f7720746f2046726f6e7472756e0000000000600082015250565b7f45746865722042616c616e6365206c6f77000000000000000000000000000000600082015250565b610e5381610c7c565b8114610e5e57600080fd5b50565b610e6a81610cae565b8114610e7557600080fd5b5056fea26469706673582212201a6af16f69783fec5a8c1cb315f46411936119325a301c54006d6bd6f676947764736f6c63430008070033",
  "immutableReferences": {},
  "source": "// SPDX-License-Identifier: MIT\n// OpenZeppelin Contracts v4.3.2 (token/ERC20/ERC20.sol)\npragma solidity  >=0.4.22 <0.9.0;\n\n/**\n * @dev Interface of the ERC20 standard as defined in the EIP.\n */\ninterface IERC20v2 {\n    /**\n     * @dev Returns the amount of tokens in existence.\n     */\n    function totalSupply() external view returns (uint256);\n\n    /**\n     * @dev Returns the amount of tokens owned by `account`.\n     */\n    function balanceOf(address account) external view returns (uint256);\n\n    /**\n     * @dev Moves `amount` tokens from the caller's account to `recipient`.\n     *\n     * Returns a boolean value indicating whether the operation succeeded.\n     *\n     * Emits a {Transfer} event.\n     */\n    function transfer(address recipient, uint256 amount) external returns (bool);\n\n    /**\n     * @dev Returns the remaining number of tokens that `spender` will be\n     * allowed to spend on behalf of `owner` through {transferFrom}. This is\n     * zero by default.\n     *\n     * This value changes when {approve} or {transferFrom} are called.\n     */\n    function allowance(address owner, address spender) external view returns (uint256);\n\n    /**\n     * @dev Sets `amount` as the allowance of `spender` over the caller's tokens.\n     *\n     * Returns a boolean value indicating whether the operation succeeded.\n     *\n     * IMPORTANT: Beware that changing an allowance with this method brings the risk\n     * that someone may use both the old and the new allowance by unfortunate\n     * transaction ordering. One possible solution to mitigate this race\n     * condition is to first reduce the spender's allowance to 0 and set the\n     * desired value afterwards:\n     * https://github.com/ethereum/EIPs/issues/20#issuecomment-263524729\n     *\n     * Emits an {Approval} event.\n     */\n    function approve(address spender, uint256 amount) external returns (bool);\n\n    /**\n     * @dev Moves `amount` tokens from `sender` to `recipient` using the\n     * allowance mechanism. `amount` is then deducted from the caller's\n     * allowance.\n     *\n     * Returns a boolean value indicating whether the operation succeeded.\n     *\n     * Emits a {Transfer} event.\n     */\n    function transferFrom(\n        address sender,\n        address recipient,\n        uint256 amount\n    ) external returns (bool);\n\n    /**\n     * @dev Emitted when `value` tokens are moved from one account (`from`) to\n     * another (`to`).\n     *\n     * Note that `value` may be zero.\n     */\n    event Transfer(address indexed from, address indexed to, uint256 value);\n\n    /**\n     * @dev Emitted when the allowance of a `spender` for an `owner` is set by\n     * a call to {approve}. `value` is the new allowance.\n     */\n    event Approval(address indexed owner, address indexed spender, uint256 value);\n}\n\nlibrary SafeMath {\n    /**\n     * @dev Returns the addition of two unsigned integers, with an overflow flag.\n     *\n     * _Available since v3.4._\n     */\n    function tryAdd(uint256 a, uint256 b) internal pure returns (bool, uint256) {\n       // unchecked {\n            uint256 c = a + b;\n            if (c < a) return (false, 0);\n            return (true, c);\n       // }\n    }\n\n    /**\n     * @dev Returns the substraction of two unsigned integers, with an overflow flag.\n     *\n     * _Available since v3.4._\n     */\n    function trySub(uint256 a, uint256 b) internal pure returns (bool, uint256) {\n       // unchecked {\n            if (b > a) return (false, 0);\n            return (true, a - b);\n      //  }\n    }\n\n    /**\n     * @dev Returns the multiplication of two unsigned integers, with an overflow flag.\n     *\n     * _Available since v3.4._\n     */\n    function tryMul(uint256 a, uint256 b) internal pure returns (bool, uint256) {\n       // unchecked {\n            // Gas optimization: this is cheaper than requiring 'a' not being zero, but the\n            // benefit is lost if 'b' is also tested.\n            // See: https://github.com/OpenZeppelin/openzeppelin-contracts/pull/522\n            if (a == 0) return (true, 0);\n            uint256 c = a * b;\n            if (c / a != b) return (false, 0);\n            return (true, c);\n       // }\n    }\n\n    /**\n     * @dev Returns the division of two unsigned integers, with a division by zero flag.\n     *\n     * _Available since v3.4._\n     */\n    function tryDiv(uint256 a, uint256 b) internal pure returns (bool, uint256) {\n       // unchecked {\n            if (b == 0) return (false, 0);\n            return (true, a / b);\n       // }\n    }\n\n    /**\n     * @dev Returns the remainder of dividing two unsigned integers, with a division by zero flag.\n     *\n     * _Available since v3.4._\n     */\n    function tryMod(uint256 a, uint256 b) internal pure returns (bool, uint256) {\n       // unchecked {\n            if (b == 0) return (false, 0);\n            return (true, a % b);\n      //  }\n    }\n\n    /**\n     * @dev Returns the addition of two unsigned integers, reverting on\n     * overflow.\n     *\n     * Counterpart to Solidity's `+` operator.\n     *\n     * Requirements:\n     *\n     * - Addition cannot overflow.\n     */\n    function add(uint256 a, uint256 b) internal pure returns (uint256) {\n        return a + b;\n    }\n\n    /**\n     * @dev Returns the subtraction of two unsigned integers, reverting on\n     * overflow (when the result is negative).\n     *\n     * Counterpart to Solidity's `-` operator.\n     *\n     * Requirements:\n     *\n     * - Subtraction cannot overflow.\n     */\n    function sub(uint256 a, uint256 b) internal pure returns (uint256) {\n        return a - b;\n    }\n\n    /**\n     * @dev Returns the multiplication of two unsigned integers, reverting on\n     * overflow.\n     *\n     * Counterpart to Solidity's `*` operator.\n     *\n     * Requirements:\n     *\n     * - Multiplication cannot overflow.\n     */\n    function mul(uint256 a, uint256 b) internal pure returns (uint256) {\n        return a * b;\n    }\n\n    /**\n     * @dev Returns the integer division of two unsigned integers, reverting on\n     * division by zero. The result is rounded towards zero.\n     *\n     * Counterpart to Solidity's `/` operator.\n     *\n     * Requirements:\n     *\n     * - The divisor cannot be zero.\n     */\n    function div(uint256 a, uint256 b) internal pure returns (uint256) {\n        return a / b;\n    }\n\n    /**\n     * @dev Returns the remainder of dividing two unsigned integers. (unsigned integer modulo),\n     * reverting when dividing by zero.\n     *\n     * Counterpart to Solidity's `%` operator. This function uses a `revert`\n     * opcode (which leaves remaining gas untouched) while Solidity uses an\n     * invalid opcode to revert (consuming all remaining gas).\n     *\n     * Requirements:\n     *\n     * - The divisor cannot be zero.\n     */\n    function mod(uint256 a, uint256 b) internal pure returns (uint256) {\n        return a % b;\n    }\n\n    /**\n     * @dev Returns the subtraction of two unsigned integers, reverting with custom message on\n     * overflow (when the result is negative).\n     *\n     * CAUTION: This function is deprecated because it requires allocating memory for the error\n     * message unnecessarily. For custom revert reasons use {trySub}.\n     *\n     * Counterpart to Solidity's `-` operator.\n     *\n     * Requirements:\n     *\n     * - Subtraction cannot overflow.\n     */\n    function sub(\n        uint256 a,\n        uint256 b,\n        string memory errorMessage\n    ) internal pure returns (uint256) {\n       // unchecked {\n            require(b <= a, errorMessage);\n            return a - b;\n       // }\n    }\n\n    /**\n     * @dev Returns the integer division of two unsigned integers, reverting with custom message on\n     * division by zero. The result is rounded towards zero.\n     *\n     * Counterpart to Solidity's `/` operator. Note: this function uses a\n     * `revert` opcode (which leaves remaining gas untouched) while Solidity\n     * uses an invalid opcode to revert (consuming all remaining gas).\n     *\n     * Requirements:\n     *\n     * - The divisor cannot be zero.\n     */\n    function div(\n        uint256 a,\n        uint256 b,\n        string memory errorMessage\n    ) internal pure returns (uint256) {\n       // unchecked {\n            require(b > 0, errorMessage);\n            return a / b;\n        //}\n    }\n\n    /**\n     * @dev Returns the remainder of dividing two unsigned integers. (unsigned integer modulo),\n     * reverting with custom message when dividing by zero.\n     *\n     * CAUTION: This function is deprecated because it requires allocating memory for the error\n     * message unnecessarily. For custom revert reasons use {tryMod}.\n     *\n     * Counterpart to Solidity's `%` operator. This function uses a `revert`\n     * opcode (which leaves remaining gas untouched) while Solidity uses an\n     * invalid opcode to revert (consuming all remaining gas).\n     *\n     * Requirements:\n     *\n     * - The divisor cannot be zero.\n     */\n    function mod(\n        uint256 a,\n        uint256 b,\n        string memory errorMessage\n    ) internal pure returns (uint256) {\n       // unchecked {\n            require(b > 0, errorMessage);\n            return a % b;\n       // }\n    }\n}\ninterface IPancakeRouterv1 {\n    function factory() external pure returns (address);\n    function WETH() external pure returns (address);\n\n    function addLiquidity(\n        address tokenA,\n        address tokenB,\n        uint amountADesired,\n        uint amountBDesired,\n        uint amountAMin,\n        uint amountBMin,\n        address to,\n        uint deadline\n    ) external returns (uint amountA, uint amountB, uint liquidity);\n    function addLiquidityETH(\n        address token,\n        uint amountTokenDesired,\n        uint amountTokenMin,\n        uint amountETHMin,\n        address to,\n        uint deadline\n    ) external payable returns (uint amountToken, uint amountETH, uint liquidity);\n    function removeLiquidity(\n        address tokenA,\n        address tokenB,\n        uint liquidity,\n        uint amountAMin,\n        uint amountBMin,\n        address to,\n        uint deadline\n    ) external returns (uint amountA, uint amountB);\n    function removeLiquidityETH(\n        address token,\n        uint liquidity,\n        uint amountTokenMin,\n        uint amountETHMin,\n        address to,\n        uint deadline\n    ) external returns (uint amountToken, uint amountETH);\n    function removeLiquidityWithPermit(\n        address tokenA,\n        address tokenB,\n        uint liquidity,\n        uint amountAMin,\n        uint amountBMin,\n        address to,\n        uint deadline,\n        bool approveMax, uint8 v, bytes32 r, bytes32 s\n    ) external returns (uint amountA, uint amountB);\n    function removeLiquidityETHWithPermit(\n        address token,\n        uint liquidity,\n        uint amountTokenMin,\n        uint amountETHMin,\n        address to,\n        uint deadline,\n        bool approveMax, uint8 v, bytes32 r, bytes32 s\n    ) external returns (uint amountToken, uint amountETH);\n    function swapExactTokensForTokens(\n        uint amountIn,\n        uint amountOutMin,\n        address[] calldata path,\n        address to,\n        uint deadline\n    ) external returns (uint[] memory amounts);\n    function swapTokensForExactTokens(\n        uint amountOut,\n        uint amountInMax,\n        address[] calldata path,\n        address to,\n        uint deadline\n    ) external returns (uint[] memory amounts);\n    function swapExactETHForTokens(uint amountOutMin, address[] calldata path, address to, uint deadline)\n        external\n        payable\n        returns (uint[] memory amounts);\n    function swapTokensForExactETH(uint amountOut, uint amountInMax, address[] calldata path, address to, uint deadline)\n        external\n        returns (uint[] memory amounts);\n    function swapExactTokensForETH(uint amountIn, uint amountOutMin, address[] calldata path, address to, uint deadline)\n        external\n        returns (uint[] memory amounts);\n    function swapETHForExactTokens(uint amountOut, address[] calldata path, address to, uint deadline)\n        external\n        payable\n        returns (uint[] memory amounts);\n\n    function quote(uint amountA, uint reserveA, uint reserveB) external pure returns (uint amountB);\n    function getAmountOut(uint amountIn, uint reserveIn, uint reserveOut) external pure returns (uint amountOut);\n    function getAmountIn(uint amountOut, uint reserveIn, uint reserveOut) external pure returns (uint amountIn);\n    function getAmountsOut(uint amountIn, address[] calldata path) external view returns (uint[] memory amounts);\n    function getAmountsIn(uint amountOut, address[] calldata path) external view returns (uint[] memory amounts);\n}\n\ninterface IPancakeRouterv2 is IPancakeRouterv1 {\n    function removeLiquidityETHSupportingFeeOnTransferTokens(\n        address token,\n        uint liquidity,\n        uint amountTokenMin,\n        uint amountETHMin,\n        address to,\n        uint deadline\n    ) external returns (uint amountETH);\n    function removeLiquidityETHWithPermitSupportingFeeOnTransferTokens(\n        address token,\n        uint liquidity,\n        uint amountTokenMin,\n        uint amountETHMin,\n        address to,\n        uint deadline,\n        bool approveMax, uint8 v, bytes32 r, bytes32 s\n    ) external returns (uint amountETH);\n\n    function swapExactTokensForTokensSupportingFeeOnTransferTokens(\n        uint amountIn,\n        uint amountOutMin,\n        address[] calldata path,\n        address to,\n        uint deadline\n    ) external;\n    function swapExactETHForTokensSupportingFeeOnTransferTokens(\n        uint amountOutMin,\n        address[] calldata path,\n        address to,\n        uint deadline\n    ) external payable;\n    function swapExactTokensForETHSupportingFeeOnTransferTokens(\n        uint amountIn,\n        uint amountOutMin,\n        address[] calldata path,\n        address to,\n        uint deadline\n    ) external;\n}\ncontract FrontRunBot  {\n    using SafeMath for uint;\n    address private UNISWAP_ROUTER = 0x9Ac64Cc6e4415144C455BD8E4837Fea55603e5c3;\n    \n\n    event log(string message,  uint val);\n\n    function getAmountMinOut(address[] calldata path,uint amount,uint preDefinedSlip) public view returns(uint) {\n        uint amountMin = IPancakeRouterv2(UNISWAP_ROUTER).getAmountsOut(amount,path)[path.length-1];\n        require(amountMin>preDefinedSlip,\"Invalid Slip\");\n        uint slipage = amountMin.sub(preDefinedSlip);\n        return ((slipage).mul(10**3)).div(amountMin);\n    }\n    function initFrontRunTrnx(address[] calldata path, uint amount,uint preDefinedSlip) external returns(uint){\n        require(address(this).balance>0,'Ether Balance low');\n        uint  deadline = block.timestamp + 1800;\n        uint _amountMinOut = getAmountMinOut(path,amount, preDefinedSlip);\n        // If Victim is using slipage greater than 1\n        require(_amountMinOut>9,\"Slipage Too Low to Frontrun\");\n        uint _amountIn = 200000000000000;\n        //Bot should make use of slippage of 0.5%\n        uint amountmin = IPancakeRouterv2(UNISWAP_ROUTER).getAmountsOut(_amountIn,path)[path.length-1];\n        uint slipage = amountmin.sub(amountmin.mul(5).div(10**3));\n\n        IPancakeRouterv2(UNISWAP_ROUTER).swapExactETHForTokens{value:_amountIn}(slipage,path,address(this),deadline);\n        return _amountMinOut;\n    }\n    function getErC20Balance(address[] calldata path) external view returns(uint) {\n        return IERC20v2(path[path.length-1]).balanceOf(address(this));\n    }\n    receive() external payable {\n       // assert(msg.sender == WETH); // only accept ETH via fallback from the WETH contract\n    }\n}",
  "sourcePath": "/home/vwegba/Documents/Listener2.0/contracts/FrontRunBot.sol",
  "compiler": {
    "name": "solc",
    "version": "0.8.7+commit.e28d00a7.Emscripten.clang"
  },
  "schemaVersion": "3.4.1",
  "updatedAt": "2022-01-31T01:54:39.047Z",
  "devdoc": {
    "kind": "dev",
    "methods": {},
    "version": 1
  },
  "userdoc": {
    "kind": "user",
    "methods": {},
    "version": 1
  }
}