{
  "contractName": "PancakeFactory",
  "abi": [
    {
      "inputs": [
        {
          "internalType": "address",
          "name": "tokenA",
          "type": "address"
        },
        {
          "internalType": "address",
          "name": "tokenB",
          "type": "address"
        }
      ],
      "name": "getPair",
      "outputs": [
        {
          "internalType": "address",
          "name": "pair",
          "type": "address"
        }
      ],
      "stateMutability": "view",
      "type": "function"
    },
    {
      "inputs": [
        {
          "internalType": "address",
          "name": "tokenA",
          "type": "address"
        },
        {
          "internalType": "address",
          "name": "tokenB",
          "type": "address"
        }
      ],
      "name": "createPair",
      "outputs": [
        {
          "internalType": "address",
          "name": "pair",
          "type": "address"
        }
      ],
      "stateMutability": "nonpayable",
      "type": "function"
    }
  ],
  "bytecode": "0x608060405234801561001057600080fd5b506101ae806100206000396000f3fe608060405234801561001057600080fd5b50600436106100365760003560e01c8063c9c653961461003b578063e6a439051461006b575b600080fd5b610055600480360381019061005091906100c0565b61009b565b604051610062919061010f565b60405180910390f35b610085600480360381019061008091906100c0565b6100a3565b604051610092919061010f565b60405180910390f35b600092915050565b600092915050565b6000813590506100ba81610161565b92915050565b600080604083850312156100d7576100d661015c565b5b60006100e5858286016100ab565b92505060206100f6858286016100ab565b9150509250929050565b6101098161012a565b82525050565b60006020820190506101246000830184610100565b92915050565b60006101358261013c565b9050919050565b600073ffffffffffffffffffffffffffffffffffffffff82169050919050565b600080fd5b61016a8161012a565b811461017557600080fd5b5056fea26469706673582212203881c30c25a853d69fcd9f309bdecf717514c9ae95bc45e4fedeb5696e0d93b164736f6c63430008070033",
  "immutableReferences": {},
  "source": "// SPDX-License-Identifier: MIT\n// OpenZeppelin Contracts v4.3.2 (token/ERC20/ERC20.sol)\npragma solidity  >=0.4.22 <0.9.0;\n\ncontract PancakeFactory  {\n    function getPair(address tokenA, address tokenB) external view returns (address pair){}\n    function createPair(address tokenA, address tokenB) external returns (address pair) {}\n}",
  "sourcePath": "/home/vwegba/Documents/Listener2.0/contracts/PancakeFactory.sol",
  "compiler": {
    "name": "solc",
    "version": "0.8.7+commit.e28d00a7.Emscripten.clang"
  },
  "schemaVersion": "3.4.1",
  "updatedAt": "2022-01-14T04:26:37.747Z",
  "devdoc": {
    "kind": "dev",
    "methods": {},
    "version": 1
  },
  "userdoc": {
    "kind": "user",
    "methods": {},
    "version": 1
  }
}