{
  "contractName": "PancakeRouter",
  "abi": [
    {
      "inputs": [],
      "name": "WETH",
      "outputs": [
        {
          "internalType": "address",
          "name": "",
          "type": "address"
        }
      ],
      "stateMutability": "pure",
      "type": "function"
    },
    {
      "inputs": [
        {
          "internalType": "address",
          "name": "tokenA",
          "type": "address"
        },
        {
          "internalType": "address",
          "name": "tokenB",
          "type": "address"
        },
        {
          "internalType": "uint256",
          "name": "amountADesired",
          "type": "uint256"
        },
        {
          "internalType": "uint256",
          "name": "amountBDesired",
          "type": "uint256"
        },
        {
          "internalType": "uint256",
          "name": "amountAMin",
          "type": "uint256"
        },
        {
          "internalType": "uint256",
          "name": "amountBMin",
          "type": "uint256"
        },
        {
          "internalType": "address",
          "name": "to",
          "type": "address"
        },
        {
          "internalType": "uint256",
          "name": "deadline",
          "type": "uint256"
        }
      ],
      "name": "addLiquidity",
      "outputs": [
        {
          "internalType": "uint256",
          "name": "amountA",
          "type": "uint256"
        },
        {
          "internalType": "uint256",
          "name": "amountB",
          "type": "uint256"
        },
        {
          "internalType": "uint256",
          "name": "liquidity",
          "type": "uint256"
        }
      ],
      "stateMutability": "nonpayable",
      "type": "function"
    },
    {
      "inputs": [
        {
          "internalType": "address",
          "name": "token",
          "type": "address"
        },
        {
          "internalType": "uint256",
          "name": "amountTokenDesired",
          "type": "uint256"
        },
        {
          "internalType": "uint256",
          "name": "amountTokenMin",
          "type": "uint256"
        },
        {
          "internalType": "uint256",
          "name": "amountETHMin",
          "type": "uint256"
        },
        {
          "internalType": "address",
          "name": "to",
          "type": "address"
        },
        {
          "internalType": "uint256",
          "name": "deadline",
          "type": "uint256"
        }
      ],
      "name": "addLiquidityETH",
      "outputs": [
        {
          "internalType": "uint256",
          "name": "amountToken",
          "type": "uint256"
        },
        {
          "internalType": "uint256",
          "name": "amountETH",
          "type": "uint256"
        },
        {
          "internalType": "uint256",
          "name": "liquidity",
          "type": "uint256"
        }
      ],
      "stateMutability": "payable",
      "type": "function"
    },
    {
      "inputs": [
        {
          "internalType": "address",
          "name": "token",
          "type": "address"
        },
        {
          "internalType": "uint256",
          "name": "liquidity",
          "type": "uint256"
        },
        {
          "internalType": "uint256",
          "name": "amountTokenMin",
          "type": "uint256"
        },
        {
          "internalType": "uint256",
          "name": "amountETHMin",
          "type": "uint256"
        },
        {
          "internalType": "address",
          "name": "to",
          "type": "address"
        },
        {
          "internalType": "uint256",
          "name": "deadline",
          "type": "uint256"
        }
      ],
      "name": "removeLiquidityETHSupportingFeeOnTransferTokens",
      "outputs": [
        {
          "internalType": "uint256",
          "name": "amountETH",
          "type": "uint256"
        }
      ],
      "stateMutability": "nonpayable",
      "type": "function"
    },
    {
      "inputs": [
        {
          "internalType": "address",
          "name": "token",
          "type": "address"
        },
        {
          "internalType": "uint256",
          "name": "liquidity",
          "type": "uint256"
        },
        {
          "internalType": "uint256",
          "name": "amountTokenMin",
          "type": "uint256"
        },
        {
          "internalType": "uint256",
          "name": "amountETHMin",
          "type": "uint256"
        },
        {
          "internalType": "address",
          "name": "to",
          "type": "address"
        },
        {
          "internalType": "uint256",
          "name": "deadline",
          "type": "uint256"
        },
        {
          "internalType": "bool",
          "name": "approveMax",
          "type": "bool"
        },
        {
          "internalType": "uint8",
          "name": "v",
          "type": "uint8"
        },
        {
          "internalType": "bytes32",
          "name": "r",
          "type": "bytes32"
        },
        {
          "internalType": "bytes32",
          "name": "s",
          "type": "bytes32"
        }
      ],
      "name": "removeLiquidityETHWithPermitSupportingFeeOnTransferTokens",
      "outputs": [
        {
          "internalType": "uint256",
          "name": "amountETH",
          "type": "uint256"
        }
      ],
      "stateMutability": "nonpayable",
      "type": "function"
    },
    {
      "inputs": [
        {
          "internalType": "uint256",
          "name": "amountIn",
          "type": "uint256"
        },
        {
          "internalType": "uint256",
          "name": "amountOutMin",
          "type": "uint256"
        },
        {
          "internalType": "address[]",
          "name": "path",
          "type": "address[]"
        },
        {
          "internalType": "address",
          "name": "to",
          "type": "address"
        },
        {
          "internalType": "uint256",
          "name": "deadline",
          "type": "uint256"
        }
      ],
      "name": "swapExactTokensForTokensSupportingFeeOnTransferTokens",
      "outputs": [],
      "stateMutability": "nonpayable",
      "type": "function"
    },
    {
      "inputs": [
        {
          "internalType": "uint256",
          "name": "amountOutMin",
          "type": "uint256"
        },
        {
          "internalType": "address[]",
          "name": "path",
          "type": "address[]"
        },
        {
          "internalType": "address",
          "name": "to",
          "type": "address"
        },
        {
          "internalType": "uint256",
          "name": "deadline",
          "type": "uint256"
        }
      ],
      "name": "swapExactETHForTokensSupportingFeeOnTransferTokens",
      "outputs": [],
      "stateMutability": "payable",
      "type": "function"
    },
    {
      "inputs": [
        {
          "internalType": "uint256",
          "name": "amountIn",
          "type": "uint256"
        },
        {
          "internalType": "uint256",
          "name": "amountOutMin",
          "type": "uint256"
        },
        {
          "internalType": "address[]",
          "name": "path",
          "type": "address[]"
        },
        {
          "internalType": "address",
          "name": "to",
          "type": "address"
        },
        {
          "internalType": "uint256",
          "name": "deadline",
          "type": "uint256"
        }
      ],
      "name": "swapExactTokensForETHSupportingFeeOnTransferTokens",
      "outputs": [],
      "stateMutability": "nonpayable",
      "type": "function"
    },
    {
      "inputs": [
        {
          "internalType": "uint256",
          "name": "amountIn",
          "type": "uint256"
        },
        {
          "internalType": "address[]",
          "name": "path",
          "type": "address[]"
        }
      ],
      "name": "getAmountsOut",
      "outputs": [
        {
          "internalType": "uint256[]",
          "name": "amounts",
          "type": "uint256[]"
        }
      ],
      "stateMutability": "view",
      "type": "function"
    }
  ],
  "bytecode": "0x608060405234801561001057600080fd5b506109a0806100206000396000f3fe6080604052600436106100865760003560e01c8063af2979eb11610059578063af2979eb14610145578063b6f9de9514610182578063d06ca61f1461019e578063e8e33700146101db578063f305d7191461021a57610086565b80635b0d59841461008b5780635c11d795146100c8578063791ac947146100f1578063ad5c46481461011a575b600080fd5b34801561009757600080fd5b506100b260048036038101906100ad91906104b3565b61024c565b6040516100bf91906107f4565b60405180910390f35b3480156100d457600080fd5b506100ef60048036038101906100ea919061067a565b61025c565b005b3480156100fd57600080fd5b506101186004803603810190610113919061067a565b610264565b005b34801561012657600080fd5b5061012f61026c565b60405161013c91906107b7565b60405180910390f35b34801561015157600080fd5b5061016c60048036038101906101679190610426565b610271565b60405161017991906107f4565b60405180910390f35b61019c600480360381019061019791906105f2565b61027d565b005b3480156101aa57600080fd5b506101c560048036038101906101c09190610592565b610284565b6040516101d291906107d2565b60405180910390f35b3480156101e757600080fd5b5061020260048036038101906101fd9190610370565b61028d565b6040516102119392919061080f565b60405180910390f35b610234600480360381019061022f9190610426565b6102a0565b6040516102439392919061080f565b60405180910390f35b60009a9950505050505050505050565b505050505050565b505050505050565b600090565b60009695505050505050565b5050505050565b60609392505050565b6000806000985098509895505050505050565b600080600096509650969350505050565b6000813590506102c0816108f7565b92915050565b60008083601f8401126102dc576102db6108e3565b5b8235905067ffffffffffffffff8111156102f9576102f86108de565b5b602083019150836020820283011115610315576103146108e8565b5b9250929050565b60008135905061032b8161090e565b92915050565b60008135905061034081610925565b92915050565b6000813590506103558161093c565b92915050565b60008135905061036a81610953565b92915050565b600080600080600080600080610100898b031215610391576103906108f2565b5b600061039f8b828c016102b1565b98505060206103b08b828c016102b1565b97505060406103c18b828c01610346565b96505060606103d28b828c01610346565b95505060806103e38b828c01610346565b94505060a06103f48b828c01610346565b93505060c06104058b828c016102b1565b92505060e06104168b828c01610346565b9150509295985092959890939650565b60008060008060008060c08789031215610443576104426108f2565b5b600061045189828a016102b1565b965050602061046289828a01610346565b955050604061047389828a01610346565b945050606061048489828a01610346565b935050608061049589828a016102b1565b92505060a06104a689828a01610346565b9150509295509295509295565b6000806000806000806000806000806101408b8d0312156104d7576104d66108f2565b5b60006104e58d828e016102b1565b9a505060206104f68d828e01610346565b99505060406105078d828e01610346565b98505060606105188d828e01610346565b97505060806105298d828e016102b1565b96505060a061053a8d828e01610346565b95505060c061054b8d828e0161031c565b94505060e061055c8d828e0161035b565b93505061010061056e8d828e01610331565b9250506101206105808d828e01610331565b9150509295989b9194979a5092959850565b6000806000604084860312156105ab576105aa6108f2565b5b60006105b986828701610346565b935050602084013567ffffffffffffffff8111156105da576105d96108ed565b5b6105e6868287016102c6565b92509250509250925092565b60008060008060006080868803121561060e5761060d6108f2565b5b600061061c88828901610346565b955050602086013567ffffffffffffffff81111561063d5761063c6108ed565b5b610649888289016102c6565b9450945050604061065c888289016102b1565b925050606061066d88828901610346565b9150509295509295909350565b60008060008060008060a08789031215610697576106966108f2565b5b60006106a589828a01610346565b96505060206106b689828a01610346565b955050604087013567ffffffffffffffff8111156106d7576106d66108ed565b5b6106e389828a016102c6565b945094505060606106f689828a016102b1565b925050608061070789828a01610346565b9150509295509295509295565b60006107208383610799565b60208301905092915050565b6107358161087f565b82525050565b600061074682610856565b610750818561086e565b935061075b83610846565b8060005b8381101561078c5781516107738882610714565b975061077e83610861565b92505060018101905061075f565b5085935050505092915050565b6107a2816108c7565b82525050565b6107b1816108c7565b82525050565b60006020820190506107cc600083018461072c565b92915050565b600060208201905081810360008301526107ec818461073b565b905092915050565b600060208201905061080960008301846107a8565b92915050565b600060608201905061082460008301866107a8565b61083160208301856107a8565b61083e60408301846107a8565b949350505050565b6000819050602082019050919050565b600081519050919050565b6000602082019050919050565b600082825260208201905092915050565b600061088a826108a7565b9050919050565b60008115159050919050565b6000819050919050565b600073ffffffffffffffffffffffffffffffffffffffff82169050919050565b6000819050919050565b600060ff82169050919050565b600080fd5b600080fd5b600080fd5b600080fd5b600080fd5b6109008161087f565b811461090b57600080fd5b50565b61091781610891565b811461092257600080fd5b50565b61092e8161089d565b811461093957600080fd5b50565b610945816108c7565b811461095057600080fd5b50565b61095c816108d1565b811461096757600080fd5b5056fea2646970667358221220a8a91e482ffdff4e7fe15bab61b6412dcfa0c977daa57a1f732d718c77ea228664736f6c63430008070033",
  "immutableReferences": {},
  "source": "// SPDX-License-Identifier: MIT\n// OpenZeppelin Contracts v4.3.2 (token/ERC20/ERC20.sol)\npragma solidity  >=0.4.22 <0.9.0;\n\n\n\ncontract PancakeRouter  {\n    function WETH() external pure returns (address) {}\n    function addLiquidity(\n        address tokenA,\n        address tokenB,\n        uint amountADesired,\n        uint amountBDesired,\n        uint amountAMin,\n        uint amountBMin,\n        address to,\n        uint deadline\n    ) external returns (uint amountA, uint amountB, uint liquidity){}\n    function addLiquidityETH(\n        address token,\n        uint amountTokenDesired,\n        uint amountTokenMin,\n        uint amountETHMin,\n        address to,\n        uint deadline\n    ) external payable returns (uint amountToken, uint amountETH, uint liquidity){}\n    function removeLiquidityETHSupportingFeeOnTransferTokens(\n        address token,\n        uint liquidity,\n        uint amountTokenMin,\n        uint amountETHMin,\n        address to,\n        uint deadline\n    ) external returns (uint amountETH) {}\n    function removeLiquidityETHWithPermitSupportingFeeOnTransferTokens(\n        address token,\n        uint liquidity,\n        uint amountTokenMin,\n        uint amountETHMin,\n        address to,\n        uint deadline,\n        bool approveMax, uint8 v, bytes32 r, bytes32 s\n    ) external returns (uint amountETH){}\n\n    function swapExactTokensForTokensSupportingFeeOnTransferTokens(\n        uint amountIn,\n        uint amountOutMin,\n        address[] calldata path,\n        address to,\n        uint deadline\n    ) external {}\n    function swapExactETHForTokensSupportingFeeOnTransferTokens(\n        uint amountOutMin,\n        address[] calldata path,\n        address to,\n        uint deadline\n    ) external payable {}\n    function swapExactTokensForETHSupportingFeeOnTransferTokens(\n        uint amountIn,\n        uint amountOutMin,\n        address[] calldata path,\n        address to,\n        uint deadline\n    ) external{}\n    function getAmountsOut(uint amountIn, address[] calldata path) external view returns (uint[] memory amounts){}\n}",
  "sourcePath": "/home/vwegba/Documents/Listener2.0/contracts/IPancakeRouterv2.sol",
  "compiler": {
    "name": "solc",
    "version": "0.8.7+commit.e28d00a7.Emscripten.clang"
  },
  "schemaVersion": "3.4.1",
  "updatedAt": "2022-01-14T04:26:37.743Z",
  "devdoc": {
    "kind": "dev",
    "methods": {},
    "version": 1
  },
  "userdoc": {
    "kind": "user",
    "methods": {},
    "version": 1
  }
}